{
  "contractName": "EHRAccessAudit",
  "abi": [
    {
      "inputs": [],
      "stateMutability": "nonpayable",
      "type": "constructor"
    },
    {
      "anonymous": false,
      "inputs": [
        {
          "indexed": true,
          "internalType": "address",
          "name": "user",
          "type": "address"
        },
        {
          "indexed": true,
          "internalType": "uint256",
          "name": "recordId",
          "type": "uint256"
        },
        {
          "indexed": false,
          "internalType": "enum EHRAccessAudit.Purpose",
          "name": "purpose",
          "type": "uint8"
        },
        {
          "indexed": false,
          "internalType": "bool",
          "name": "granted",
          "type": "bool"
        }
      ],
      "name": "AccessLogged",
      "type": "event"
    },
    {
      "anonymous": false,
      "inputs": [
        {
          "indexed": true,
          "internalType": "uint256",
          "name": "recordId",
          "type": "uint256"
        },
        {
          "indexed": false,
          "internalType": "bytes32",
          "name": "hash",
          "type": "bytes32"
        }
      ],
      "name": "RecordHashStored",
      "type": "event"
    },
    {
      "anonymous": false,
      "inputs": [
        {
          "indexed": true,
          "internalType": "uint256",
          "name": "recordId",
          "type": "uint256"
        },
        {
          "indexed": false,
          "internalType": "bool",
          "name": "consent",
          "type": "bool"
        }
      ],
      "name": "ResearchConsentUpdated",
      "type": "event"
    },
    {
      "anonymous": false,
      "inputs": [
        {
          "indexed": true,
          "internalType": "address",
          "name": "user",
          "type": "address"
        },
        {
          "indexed": false,
          "internalType": "enum EHRAccessAudit.Role",
          "name": "role",
          "type": "uint8"
        }
      ],
      "name": "RoleAssigned",
      "type": "event"
    },
    {
      "inputs": [
        {
          "internalType": "uint256",
          "name": "",
          "type": "uint256"
        }
      ],
      "name": "audits",
      "outputs": [
        {
          "internalType": "uint256",
          "name": "time",
          "type": "uint256"
        },
        {
          "internalType": "address",
          "name": "user",
          "type": "address"
        },
        {
          "internalType": "enum EHRAccessAudit.Role",
          "name": "role",
          "type": "uint8"
        },
        {
          "internalType": "uint256",
          "name": "recordId",
          "type": "uint256"
        },
        {
          "internalType": "enum EHRAccessAudit.Purpose",
          "name": "purpose",
          "type": "uint8"
        },
        {
          "internalType": "bool",
          "name": "granted",
          "type": "bool"
        },
        {
          "internalType": "bytes32",
          "name": "recordHash",
          "type": "bytes32"
        }
      ],
      "stateMutability": "view",
      "type": "function",
      "constant": true
    },
    {
      "inputs": [],
      "name": "owner",
      "outputs": [
        {
          "internalType": "address",
          "name": "",
          "type": "address"
        }
      ],
      "stateMutability": "view",
      "type": "function",
      "constant": true
    },
    {
      "inputs": [
        {
          "internalType": "uint256",
          "name": "",
          "type": "uint256"
        }
      ],
      "name": "recordHashes",
      "outputs": [
        {
          "internalType": "bytes32",
          "name": "",
          "type": "bytes32"
        }
      ],
      "stateMutability": "view",
      "type": "function",
      "constant": true
    },
    {
      "inputs": [
        {
          "internalType": "uint256",
          "name": "",
          "type": "uint256"
        }
      ],
      "name": "researchConsent",
      "outputs": [
        {
          "internalType": "bool",
          "name": "",
          "type": "bool"
        }
      ],
      "stateMutability": "view",
      "type": "function",
      "constant": true
    },
    {
      "inputs": [
        {
          "internalType": "address",
          "name": "",
          "type": "address"
        }
      ],
      "name": "roles",
      "outputs": [
        {
          "internalType": "enum EHRAccessAudit.Role",
          "name": "",
          "type": "uint8"
        }
      ],
      "stateMutability": "view",
      "type": "function",
      "constant": true
    },
    {
      "inputs": [
        {
          "internalType": "address",
          "name": "user",
          "type": "address"
        },
        {
          "internalType": "enum EHRAccessAudit.Role",
          "name": "role",
          "type": "uint8"
        }
      ],
      "name": "setRole",
      "outputs": [],
      "stateMutability": "nonpayable",
      "type": "function"
    },
    {
      "inputs": [
        {
          "internalType": "uint256",
          "name": "recordId",
          "type": "uint256"
        },
        {
          "internalType": "bytes32",
          "name": "hash",
          "type": "bytes32"
        }
      ],
      "name": "storeRecordHash",
      "outputs": [],
      "stateMutability": "nonpayable",
      "type": "function"
    },
    {
      "inputs": [
        {
          "internalType": "uint256",
          "name": "recordId",
          "type": "uint256"
        },
        {
          "internalType": "bool",
          "name": "consent",
          "type": "bool"
        }
      ],
      "name": "setResearchConsent",
      "outputs": [],
      "stateMutability": "nonpayable",
      "type": "function"
    },
    {
      "inputs": [
        {
          "internalType": "address",
          "name": "user",
          "type": "address"
        },
        {
          "internalType": "uint256",
          "name": "recordId",
          "type": "uint256"
        },
        {
          "internalType": "enum EHRAccessAudit.Purpose",
          "name": "purpose",
          "type": "uint8"
        }
      ],
      "name": "canAccess",
      "outputs": [
        {
          "internalType": "bool",
          "name": "",
          "type": "bool"
        }
      ],
      "stateMutability": "view",
      "type": "function",
      "constant": true
    },
    {
      "inputs": [
        {
          "internalType": "uint256",
          "name": "recordId",
          "type": "uint256"
        },
        {
          "internalType": "enum EHRAccessAudit.Purpose",
          "name": "purpose",
          "type": "uint8"
        },
        {
          "internalType": "bytes32",
          "name": "providedHash",
          "type": "bytes32"
        }
      ],
      "name": "logAccess",
      "outputs": [
        {
          "internalType": "bool",
          "name": "granted",
          "type": "bool"
        }
      ],
      "stateMutability": "nonpayable",
      "type": "function"
    },
    {
      "inputs": [],
      "name": "auditCount",
      "outputs": [
        {
          "internalType": "uint256",
          "name": "",
          "type": "uint256"
        }
      ],
      "stateMutability": "view",
      "type": "function",
      "constant": true
    },
    {
      "inputs": [
        {
          "internalType": "uint256",
          "name": "i",
          "type": "uint256"
        }
      ],
      "name": "getAudit",
      "outputs": [
        {
          "components": [
            {
              "internalType": "uint256",
              "name": "time",
              "type": "uint256"
            },
            {
              "internalType": "address",
              "name": "user",
              "type": "address"
            },
            {
              "internalType": "enum EHRAccessAudit.Role",
              "name": "role",
              "type": "uint8"
            },
            {
              "internalType": "uint256",
              "name": "recordId",
              "type": "uint256"
            },
            {
              "internalType": "enum EHRAccessAudit.Purpose",
              "name": "purpose",
              "type": "uint8"
            },
            {
              "internalType": "bool",
              "name": "granted",
              "type": "bool"
            },
            {
              "internalType": "bytes32",
              "name": "recordHash",
              "type": "bytes32"
            }
          ],
          "internalType": "struct EHRAccessAudit.AuditEvent",
          "name": "",
          "type": "tuple"
        }
      ],
      "stateMutability": "view",
      "type": "function",
      "constant": true
    }
  ],
  "bytecode": "0x608060405234801561001057600080fd5b50336000806101000a81548173ffffffffffffffffffffffffffffffffffffffff021916908373ffffffffffffffffffffffffffffffffffffffff1602179055506004600160003373ffffffffffffffffffffffffffffffffffffffff1673ffffffffffffffffffffffffffffffffffffffff16815260200190815260200160002060006101000a81548160ff021916908360048111156100b4576100b36100be565b5b02179055506100ed565b7f4e487b7100000000000000000000000000000000000000000000000000000000600052602160045260246000fd5b611499806100fc6000396000f3fe608060405234801561001057600080fd5b50600436106100b45760003560e01c806377b8e9a01161007157806377b8e9a01461019f578063781b1d71146101cf5780638da5cb5b146101ff578063993746421461021d578063b2d660221461024d578063b60e73db14610269576100b4565b80630be2e192146100b957806317bf37a3146100d757806337a9460514610107578063571c3e60146101235780636bb1f5451461013f57806376b034791461016f575b600080fd5b6100c161029f565b6040516100ce9190610d36565b60405180910390f35b6100f160048036038101906100ec9190610d82565b6102ac565b6040516100fe9190610f80565b60405180910390f35b610121600480360381019061011c9190610fc7565b6103ed565b005b61013d60048036038101906101389190611058565b6104cf565b005b610159600480360381019061015491906110bd565b610616565b604051610166919061111f565b60405180910390f35b61018960048036038101906101849190610d82565b6107fd565b6040516101969190611149565b60405180910390f35b6101b960048036038101906101b49190610d82565b610815565b6040516101c6919061111f565b60405180910390f35b6101e960048036038101906101e49190611164565b610835565b6040516101f6919061111f565b60405180910390f35b610207610acf565b60405161021491906111c6565b60405180910390f35b610237600480360381019061023291906111e1565b610af3565b604051610244919061121d565b60405180910390f35b61026760048036038101906102629190611264565b610b13565b005b610283600480360381019061027e9190610d82565b610c08565b60405161029697969594939291906112b3565b60405180910390f35b6000600480549050905090565b6102b4610ca1565b600482815481106102c8576102c7611322565b5b90600052602060002090600502016040518060e0016040529081600082015481526020016001820160009054906101000a900473ffffffffffffffffffffffffffffffffffffffff1673ffffffffffffffffffffffffffffffffffffffff1673ffffffffffffffffffffffffffffffffffffffff1681526020016001820160149054906101000a900460ff16600481111561036657610365610dff565b5b600481111561037857610377610dff565b5b8152602001600282015481526020016003820160009054906101000a900460ff1660038111156103ab576103aa610dff565b5b60038111156103bd576103bc610dff565b5b81526020016003820160019054906101000a900460ff161515151581526020016004820154815250509050919050565b60008054906101000a900473ffffffffffffffffffffffffffffffffffffffff1673ffffffffffffffffffffffffffffffffffffffff163373ffffffffffffffffffffffffffffffffffffffff161461047b576040517f08c379a0000000000000000000000000000000000000000000000000000000008152600401610472906113ae565b60405180910390fd5b806002600084815260200190815260200160002081905550817fadeaa67a1219c05de1e7d7f1eeaa8b079c7f6cc3f72a6868c60c372be6a7e88f826040516104c39190611149565b60405180910390a25050565b60008054906101000a900473ffffffffffffffffffffffffffffffffffffffff1673ffffffffffffffffffffffffffffffffffffffff163373ffffffffffffffffffffffffffffffffffffffff161461055d576040517f08c379a0000000000000000000000000000000000000000000000000000000008152600401610554906113ae565b60405180910390fd5b80600160008473ffffffffffffffffffffffffffffffffffffffff1673ffffffffffffffffffffffffffffffffffffffff16815260200190815260200160002060006101000a81548160ff021916908360048111156105bf576105be610dff565b5b02179055508173ffffffffffffffffffffffffffffffffffffffff167f4ac36fa53f167ceb85964be512e01de2a3b8bdb9862f917da079deeeff689b388260405161060a919061121d565b60405180910390a25050565b600080600160008673ffffffffffffffffffffffffffffffffffffffff1673ffffffffffffffffffffffffffffffffffffffff16815260200190815260200160002060009054906101000a900460ff16905060048081111561067b5761067a610dff565b5b81600481111561068e5761068d610dff565b5b0361069d5760009150506107f6565b6003808111156106b0576106af610dff565b5b8360038111156106c3576106c2610dff565b5b1480156106f45750600260048111156106df576106de610dff565b5b8160048111156106f2576106f1610dff565b5b145b156107035760019150506107f6565b6001600381111561071757610716610dff565b5b83600381111561072a57610729610dff565b5b14801561075b57506002600481111561074657610745610dff565b5b81600481111561075957610758610dff565b5b145b1561076a5760019150506107f6565b6002600381111561077e5761077d610dff565b5b83600381111561079157610790610dff565b5b1480156107c25750600360048111156107ad576107ac610dff565b5b8160048111156107c0576107bf610dff565b5b145b156107f0576003600085815260200190815260200160002060009054906101000a900460ff169150506107f6565b60009150505b9392505050565b60026020528060005260406000206000915090505481565b60036020528060005260406000206000915054906101000a900460ff1681565b6000610842338585610616565b90506000600260008681526020019081526020016000205490506000801b81146108a9578083146108a8576040517f08c379a000000000000000000000000000000000000000000000000000000000815260040161089f9061141a565b60405180910390fd5b5b60046040518060e001604052804281526020013373ffffffffffffffffffffffffffffffffffffffff168152602001600160003373ffffffffffffffffffffffffffffffffffffffff1673ffffffffffffffffffffffffffffffffffffffff16815260200190815260200160002060009054906101000a900460ff16600481111561093757610936610dff565b5b815260200187815260200186600381111561095557610954610dff565b5b815260200184151581526020018581525090806001815401808255809150506001900390600052602060002090600502016000909190919091506000820151816000015560208201518160010160006101000a81548173ffffffffffffffffffffffffffffffffffffffff021916908373ffffffffffffffffffffffffffffffffffffffff16021790555060408201518160010160146101000a81548160ff02191690836004811115610a0b57610a0a610dff565b5b02179055506060820151816002015560808201518160030160006101000a81548160ff02191690836003811115610a4557610a44610dff565b5b021790555060a08201518160030160016101000a81548160ff02191690831515021790555060c082015181600401555050843373ffffffffffffffffffffffffffffffffffffffff167f60f3d6da821a1eefe59076ac4987baddfd5bc70b4bc384b5c11d33e58c0756a78685604051610abf92919061143a565b60405180910390a3509392505050565b60008054906101000a900473ffffffffffffffffffffffffffffffffffffffff1681565b60016020528060005260406000206000915054906101000a900460ff1681565b60008054906101000a900473ffffffffffffffffffffffffffffffffffffffff1673ffffffffffffffffffffffffffffffffffffffff163373ffffffffffffffffffffffffffffffffffffffff1614610ba1576040517f08c379a0000000000000000000000000000000000000000000000000000000008152600401610b98906113ae565b60405180910390fd5b806003600084815260200190815260200160002060006101000a81548160ff021916908315150217905550817f75367949a6a1d0b408817ddcde9179a9fbbaff9845013dfea2b66647742313b582604051610bfc919061111f565b60405180910390a25050565b60048181548110610c1857600080fd5b90600052602060002090600502016000915090508060000154908060010160009054906101000a900473ffffffffffffffffffffffffffffffffffffffff16908060010160149054906101000a900460ff16908060020154908060030160009054906101000a900460ff16908060030160019054906101000a900460ff16908060040154905087565b6040518060e0016040528060008152602001600073ffffffffffffffffffffffffffffffffffffffff16815260200160006004811115610ce457610ce3610dff565b5b81526020016000815260200160006003811115610d0457610d03610dff565b5b8152602001600015158152602001600080191681525090565b6000819050919050565b610d3081610d1d565b82525050565b6000602082019050610d4b6000830184610d27565b92915050565b600080fd5b610d5f81610d1d565b8114610d6a57600080fd5b50565b600081359050610d7c81610d56565b92915050565b600060208284031215610d9857610d97610d51565b5b6000610da684828501610d6d565b91505092915050565b610db881610d1d565b82525050565b600073ffffffffffffffffffffffffffffffffffffffff82169050919050565b6000610de982610dbe565b9050919050565b610df981610dde565b82525050565b7f4e487b7100000000000000000000000000000000000000000000000000000000600052602160045260246000fd5b60058110610e3f57610e3e610dff565b5b50565b6000819050610e5082610e2e565b919050565b6000610e6082610e42565b9050919050565b610e7081610e55565b82525050565b60048110610e8757610e86610dff565b5b50565b6000819050610e9882610e76565b919050565b6000610ea882610e8a565b9050919050565b610eb881610e9d565b82525050565b60008115159050919050565b610ed381610ebe565b82525050565b6000819050919050565b610eec81610ed9565b82525050565b60e082016000820151610f086000850182610daf565b506020820151610f1b6020850182610df0565b506040820151610f2e6040850182610e67565b506060820151610f416060850182610daf565b506080820151610f546080850182610eaf565b5060a0820151610f6760a0850182610eca565b5060c0820151610f7a60c0850182610ee3565b50505050565b600060e082019050610f956000830184610ef2565b92915050565b610fa481610ed9565b8114610faf57600080fd5b50565b600081359050610fc181610f9b565b92915050565b60008060408385031215610fde57610fdd610d51565b5b6000610fec85828601610d6d565b9250506020610ffd85828601610fb2565b9150509250929050565b61101081610dde565b811461101b57600080fd5b50565b60008135905061102d81611007565b92915050565b6005811061104057600080fd5b50565b60008135905061105281611033565b92915050565b6000806040838503121561106f5761106e610d51565b5b600061107d8582860161101e565b925050602061108e85828601611043565b9150509250929050565b600481106110a557600080fd5b50565b6000813590506110b781611098565b92915050565b6000806000606084860312156110d6576110d5610d51565b5b60006110e48682870161101e565b93505060206110f586828701610d6d565b9250506040611106868287016110a8565b9150509250925092565b61111981610ebe565b82525050565b60006020820190506111346000830184611110565b92915050565b61114381610ed9565b82525050565b600060208201905061115e600083018461113a565b92915050565b60008060006060848603121561117d5761117c610d51565b5b600061118b86828701610d6d565b935050602061119c868287016110a8565b92505060406111ad86828701610fb2565b9150509250925092565b6111c081610dde565b82525050565b60006020820190506111db60008301846111b7565b92915050565b6000602082840312156111f7576111f6610d51565b5b60006112058482850161101e565b91505092915050565b61121781610e55565b82525050565b6000602082019050611232600083018461120e565b92915050565b61124181610ebe565b811461124c57600080fd5b50565b60008135905061125e81611238565b92915050565b6000806040838503121561127b5761127a610d51565b5b600061128985828601610d6d565b925050602061129a8582860161124f565b9150509250929050565b6112ad81610e9d565b82525050565b600060e0820190506112c8600083018a610d27565b6112d560208301896111b7565b6112e2604083018861120e565b6112ef6060830187610d27565b6112fc60808301866112a4565b61130960a0830185611110565b61131660c083018461113a565b98975050505050505050565b7f4e487b7100000000000000000000000000000000000000000000000000000000600052603260045260246000fd5b600082825260208201905092915050565b7f4f6e6c79206f776e657200000000000000000000000000000000000000000000600082015250565b6000611398600a83611351565b91506113a382611362565b602082019050919050565b600060208201905081810360008301526113c78161138b565b9050919050565b7f48617368206d69736d61746368202874616d7065722064657465637465642900600082015250565b6000611404601f83611351565b915061140f826113ce565b602082019050919050565b60006020820190508181036000830152611433816113f7565b9050919050565b600060408201905061144f60008301856112a4565b61145c6020830184611110565b939250505056fea2646970667358221220111d53db4b853b819d7d5fd2cbc8d93c54877d5fe9f0cffa6259166d3c79b56464736f6c63430008110033",
  "immutableReferences": {},
  "source": "// SPDX-License-Identifier: MIT\npragma solidity ^0.8.17;\n\ncontract EHRAccessAudit {\n    enum Role { NONE, PATIENT, DOCTOR, RESEARCHER, ADMIN }\n    enum Purpose { NONE, TREATMENT, RESEARCH, EMERGENCY }\n\n    struct AuditEvent {\n        uint256 time;\n        address user;\n        Role role;\n        uint256 recordId;\n        Purpose purpose;\n        bool granted;\n        bytes32 recordHash;\n    }\n\n    address public owner;\n\n    mapping(address => Role) public roles;\n    mapping(uint256 => bytes32) public recordHashes;\n    mapping(uint256 => bool) public researchConsent;\n\n    AuditEvent[] public audits;\n\n    event RoleAssigned(address indexed user, Role role);\n    event RecordHashStored(uint256 indexed recordId, bytes32 hash);\n    event ResearchConsentUpdated(uint256 indexed recordId, bool consent);\n    event AccessLogged(address indexed user, uint256 indexed recordId, Purpose purpose, bool granted);\n\n    modifier onlyOwner() {\n        require(msg.sender == owner, \"Only owner\");\n        _;\n    }\n\n    constructor() {\n        owner = msg.sender;\n        roles[msg.sender] = Role.ADMIN;\n    }\n\n    function setRole(address user, Role role) external onlyOwner {\n        roles[user] = role;\n        emit RoleAssigned(user, role);\n    }\n\n    function storeRecordHash(uint256 recordId, bytes32 hash) external onlyOwner {\n        recordHashes[recordId] = hash;\n        emit RecordHashStored(recordId, hash);\n    }\n\n    function setResearchConsent(uint256 recordId, bool consent) external onlyOwner {\n        researchConsent[recordId] = consent;\n        emit ResearchConsentUpdated(recordId, consent);\n    }\n\n    function canAccess(address user, uint256 recordId, Purpose purpose) public view returns (bool) {\n        Role r = roles[user];\n\n        if (r == Role.ADMIN) return false;\n\n        if (purpose == Purpose.EMERGENCY && r == Role.DOCTOR) return true;\n        if (purpose == Purpose.TREATMENT && r == Role.DOCTOR) return true;\n\n        if (purpose == Purpose.RESEARCH && r == Role.RESEARCHER) {\n            return researchConsent[recordId];\n        }\n\n        return false;\n    }\n\n    function logAccess(uint256 recordId, Purpose purpose, bytes32 providedHash) external returns (bool granted) {\n        granted = canAccess(msg.sender, recordId, purpose);\n\n        bytes32 stored = recordHashes[recordId];\n        if (stored != bytes32(0)) {\n            require(providedHash == stored, \"Hash mismatch (tamper detected)\");\n        }\n\n        audits.push(AuditEvent({\n            time: block.timestamp,\n            user: msg.sender,\n            role: roles[msg.sender],\n            recordId: recordId,\n            purpose: purpose,\n            granted: granted,\n            recordHash: providedHash\n        }));\n\n        emit AccessLogged(msg.sender, recordId, purpose, granted);\n        return granted;\n    }\n\n    function auditCount() external view returns (uint256) {\n        return audits.length;\n    }\n\n    function getAudit(uint256 i) external view returns (AuditEvent memory) {\n        return audits[i];\n    }\n}",
  "sourcePath": "/Users/ritikajain/Downloads/Blockchain_miniproject-main/contracts/EHRAccessAudit.sol",
  "compiler": {
    "name": "solc",
    "version": "0.8.17+commit.8df45f5f.Emscripten.clang"
  },
  "schemaVersion": "3.4.16",
  "updatedAt": "2026-03-28T16:17:45.618Z",
  "networkType": "ethereum",
  "devdoc": {
    "kind": "dev",
    "methods": {},
    "version": 1
  },
  "userdoc": {
    "kind": "user",
    "methods": {},
    "version": 1
  }
}